{
  "contractName": "Counter",
  "abi": [
    {
      "inputs": [],
      "stateMutability": "nonpayable",
      "type": "constructor"
    },
    {
      "inputs": [],
      "name": "increment",
      "outputs": [],
      "stateMutability": "nonpayable",
      "type": "function"
    },
    {
      "inputs": [],
      "name": "decrement",
      "outputs": [],
      "stateMutability": "nonpayable",
      "type": "function"
    },
    {
      "inputs": [],
      "name": "getCount",
      "outputs": [
        {
          "internalType": "uint256",
          "name": "",
          "type": "uint256"
        }
      ],
      "stateMutability": "view",
      "type": "function",
      "constant": true
    }
  ],
  "bytecode": "0x608060405234801561001057600080fd5b50600080819055506101bf806100276000396000f3fe608060405234801561001057600080fd5b50600436106100415760003560e01c80632baeceb714610046578063a87d942c14610050578063d09de08a1461006e575b600080fd5b61004e610078565b005b610058610091565b60405161006591906100c2565b60405180910390f35b61007661009a565b005b60008081548092919061008a906100e7565b9190505550565b60008054905090565b6000808154809291906100ac90610111565b9190505550565b6100bc816100dd565b82525050565b60006020820190506100d760008301846100b3565b92915050565b6000819050919050565b60006100f2826100dd565b915060008214156101065761010561015a565b5b600182039050919050565b600061011c826100dd565b91507fffffffffffffffffffffffffffffffffffffffffffffffffffffffffffffffff82141561014f5761014e61015a565b5b600182019050919050565b7f4e487b7100000000000000000000000000000000000000000000000000000000600052601160045260246000fdfea26469706673582212206fc96520879d523691ef228a2b84a94ee340320ecbd68f30455826b935d7a29a64736f6c63430008000033",
  "immutableReferences": {},
  "source": "// SPDX-License-Identifier: MIT\r\npragma solidity >=0.7.0 <0.9.0;\r\n\r\ncontract Counter {\r\n    uint256 internal unit;\r\n\r\n    constructor() {\r\n        unit = 0;\r\n    }\r\n\r\n    function increment() public {\r\n        unit++;\r\n    }\r\n\r\n    function decrement() public {\r\n        unit--;\r\n    }\r\n\r\n    function getCount() public view returns (uint256) {\r\n        return unit;\r\n    }\r\n\r\n}",
  "sourcePath": "C:\\Users\\kiman\\Development\\continuum-block\\week-one\\contracts\\Counter.sol",
  "compiler": {
    "name": "solc",
    "version": "0.8.0+commit.c7dfd78e.Emscripten.clang"
  },
  "schemaVersion": "3.4.14",
  "updatedAt": "2023-06-04T20:08:40.677Z",
  "networkType": "ethereum",
  "devdoc": {
    "kind": "dev",
    "methods": {},
    "version": 1
  },
  "userdoc": {
    "kind": "user",
    "methods": {},
    "version": 1
  }
}