{
  "contractName": "Operators",
  "abi": [
    {
      "inputs": [
        {
          "internalType": "uint256",
          "name": "a",
          "type": "uint256"
        },
        {
          "internalType": "uint256",
          "name": "b",
          "type": "uint256"
        }
      ],
      "name": "addition",
      "outputs": [
        {
          "internalType": "uint256",
          "name": "",
          "type": "uint256"
        }
      ],
      "stateMutability": "pure",
      "type": "function",
      "constant": true
    },
    {
      "inputs": [
        {
          "internalType": "uint256",
          "name": "a",
          "type": "uint256"
        },
        {
          "internalType": "uint256",
          "name": "b",
          "type": "uint256"
        }
      ],
      "name": "subtraction",
      "outputs": [
        {
          "internalType": "uint256",
          "name": "",
          "type": "uint256"
        }
      ],
      "stateMutability": "pure",
      "type": "function",
      "constant": true
    },
    {
      "inputs": [
        {
          "internalType": "uint256",
          "name": "a",
          "type": "uint256"
        },
        {
          "internalType": "uint256",
          "name": "b",
          "type": "uint256"
        }
      ],
      "name": "multiplication",
      "outputs": [
        {
          "internalType": "uint256",
          "name": "",
          "type": "uint256"
        }
      ],
      "stateMutability": "pure",
      "type": "function",
      "constant": true
    },
    {
      "inputs": [
        {
          "internalType": "uint256",
          "name": "a",
          "type": "uint256"
        },
        {
          "internalType": "uint256",
          "name": "b",
          "type": "uint256"
        }
      ],
      "name": "division",
      "outputs": [
        {
          "internalType": "uint256",
          "name": "",
          "type": "uint256"
        }
      ],
      "stateMutability": "pure",
      "type": "function",
      "constant": true
    }
  ],
  "bytecode": "0x608060405234801561001057600080fd5b506103ae806100206000396000f3fe608060405234801561001057600080fd5b506004361061004c5760003560e01c806354f363a314610051578063900683d014610081578063bbe562b0146100b1578063e0068052146100e1575b600080fd5b61006b6004803603810190610066919061017e565b610111565b60405161007891906101c9565b60405180910390f35b61009b6004803603810190610096919061017e565b610127565b6040516100a891906101c9565b60405180910390f35b6100cb60048036038101906100c6919061017e565b61013d565b6040516100d891906101c9565b60405180910390f35b6100fb60048036038101906100f6919061017e565b610153565b60405161010891906101c9565b60405180910390f35b6000818361011f91906101e4565b905092915050565b6000818361013591906102c5565b905092915050565b6000818361014b919061026b565b905092915050565b60008183610161919061023a565b905092915050565b60008135905061017881610361565b92915050565b6000806040838503121561019157600080fd5b600061019f85828601610169565b92505060206101b085828601610169565b9150509250929050565b6101c3816102f9565b82525050565b60006020820190506101de60008301846101ba565b92915050565b60006101ef826102f9565b91506101fa836102f9565b9250827fffffffffffffffffffffffffffffffffffffffffffffffffffffffffffffffff0382111561022f5761022e610303565b5b828201905092915050565b6000610245826102f9565b9150610250836102f9565b9250826102605761025f610332565b5b828204905092915050565b6000610276826102f9565b9150610281836102f9565b9250817fffffffffffffffffffffffffffffffffffffffffffffffffffffffffffffffff04831182151516156102ba576102b9610303565b5b828202905092915050565b60006102d0826102f9565b91506102db836102f9565b9250828210156102ee576102ed610303565b5b828203905092915050565b6000819050919050565b7f4e487b7100000000000000000000000000000000000000000000000000000000600052601160045260246000fd5b7f4e487b7100000000000000000000000000000000000000000000000000000000600052601260045260246000fd5b61036a816102f9565b811461037557600080fd5b5056fea2646970667358221220c8245c1cdf398502d8b20fd368bdc1380030b43302f5853168351f45e162fcbe64736f6c63430008000033",
  "immutableReferences": {},
  "source": "// SPDX-License-Identifier: MIT\r\npragma solidity >=0.7.0 <0.9.0;\r\n\r\ncontract Operators {\r\n\r\n    function addition(uint256 a, uint256 b) public pure returns (uint256) {\r\n       return a + b;\r\n    }\r\n\r\n    function subtraction(uint256 a, uint256 b) public pure returns (uint256) {\r\n       return a - b;\r\n    }\r\n\r\n    function multiplication(uint256 a, uint256 b) public pure returns (uint256) {\r\n       return a * b;\r\n    }\r\n\r\n    function division(uint256 a, uint256 b) public pure returns (uint256) {\r\n       return a / b;\r\n    }\r\n}",
  "sourcePath": "C:\\Users\\kiman\\Development\\continuum-block\\week-one\\quiz-two\\contracts\\Operators.sol",
  "compiler": {
    "name": "solc",
    "version": "0.8.0+commit.c7dfd78e.Emscripten.clang"
  },
  "schemaVersion": "3.4.14",
  "updatedAt": "2023-06-05T04:56:44.846Z",
  "networkType": "ethereum",
  "devdoc": {
    "kind": "dev",
    "methods": {},
    "version": 1
  },
  "userdoc": {
    "kind": "user",
    "methods": {},
    "version": 1
  }
}